{
  "contractName": "Test",
  "abi": [
    {
      "inputs": [
        {
          "internalType": "uint256",
          "name": "v",
          "type": "uint256"
        }
      ],
      "name": "set_data",
      "outputs": [
        {
          "internalType": "bool",
          "name": "",
          "type": "bool"
        }
      ],
      "stateMutability": "nonpayable",
      "type": "function"
    },
    {
      "inputs": [],
      "name": "get_data",
      "outputs": [
        {
          "internalType": "uint256",
          "name": "",
          "type": "uint256"
        }
      ],
      "stateMutability": "view",
      "type": "function",
      "constant": true
    }
  ],
  "bytecode": "0x608060405234801561001057600080fd5b5060ef8061001f6000396000f3fe6080604052348015600f57600080fd5b506004361060325760003560e01c806350bf8b0d146037578063b6c3b805146053575b600080fd5b603d6096565b6040518082815260200191505060405180910390f35b607c60048036036020811015606757600080fd5b8101908080359060200190929190505050609f565b604051808215151515815260200191505060405180910390f35b60008054905090565b60008160008082825401925050819055506001905091905056fea264697066735822122050df8029e28f0ce91b4070b0529a77e2f727a672adc2c890625f8524c7135a7264736f6c63430006020033",
  "source": "pragma solidity >=0.4.22 <0.8.0;\r\n\r\ncontract Test {\r\n\r\n    uint256 index;\r\n\r\n    function set_data (uint256 v) public returns(bool) {\r\n        index += v;\r\n        return true;\r\n    }\r\n\r\n    function get_data () public view returns (uint256) {\r\n        return index;\r\n    }\r\n\r\n}",
  "sourcePath": "D:/study/dapp-truffle/simpleWithNodeJs/sample1/contract/contracts/Test.sol",
  "compiler": {
    "name": "solc",
    "version": "0.6.2+commit.bacdbe57.Emscripten.clang"
  },
  "schemaVersion": "3.3.1",
  "updatedAt": "2021-07-30T05:24:56.625Z",
  "networkType": "ethereum",
  "devdoc": {
    "methods": {}
  },
  "userdoc": {
    "methods": {}
  }
}